{
  "contractName": "HelloMessage",
  "abi": [
    {
      "inputs": [
        {
          "internalType": "address",
          "name": "owner",
          "type": "address"
        }
      ],
      "stateMutability": "nonpayable",
      "type": "constructor"
    },
    {
      "inputs": [],
      "name": "_message",
      "outputs": [
        {
          "internalType": "string",
          "name": "",
          "type": "string"
        }
      ],
      "stateMutability": "view",
      "type": "function"
    },
    {
      "inputs": [],
      "name": "getMessage",
      "outputs": [
        {
          "internalType": "string",
          "name": "",
          "type": "string"
        }
      ],
      "stateMutability": "view",
      "type": "function"
    },
    {
      "inputs": [
        {
          "internalType": "address",
          "name": "caller",
          "type": "address"
        },
        {
          "internalType": "string",
          "name": "new_message",
          "type": "string"
        }
      ],
      "name": "setMessage",
      "outputs": [],
      "stateMutability": "nonpayable",
      "type": "function"
    }
  ],
  "bytecode": "0x608060405234801561001057600080fd5b50604051610b24380380610b248339818101604052810190610032919061011c565b806000806101000a81548173ffffffffffffffffffffffffffffffffffffffff021916908373ffffffffffffffffffffffffffffffffffffffff16021790555033600160006101000a81548173ffffffffffffffffffffffffffffffffffffffff021916908373ffffffffffffffffffffffffffffffffffffffff16021790555050610149565b600080fd5b600073ffffffffffffffffffffffffffffffffffffffff82169050919050565b60006100e9826100be565b9050919050565b6100f9816100de565b811461010457600080fd5b50565b600081519050610116816100f0565b92915050565b600060208284031215610132576101316100b9565b5b600061014084828501610107565b91505092915050565b6109cc806101586000396000f3fe608060405234801561001057600080fd5b50600436106100415760003560e01c80630adde0eb14610046578063ce6d41de14610064578063e9aa460f14610082575b600080fd5b61004e61009e565b60405161005b919061038b565b60405180910390f35b61006c61012c565b604051610079919061038b565b60405180910390f35b61009c60048036038101906100979190610554565b6101be565b005b600280546100ab906105df565b80601f01602080910402602001604051908101604052809291908181526020018280546100d7906105df565b80156101245780601f106100f957610100808354040283529160200191610124565b820191906000526020600020905b81548152906001019060200180831161010757829003601f168201915b505050505081565b60606002805461013b906105df565b80601f0160208091040260200160405190810160405280929190818152602001828054610167906105df565b80156101b45780601f10610189576101008083540402835291602001916101b4565b820191906000526020600020905b81548152906001019060200180831161019757829003601f168201915b5050505050905090565b600160009054906101000a900473ffffffffffffffffffffffffffffffffffffffff1673ffffffffffffffffffffffffffffffffffffffff163373ffffffffffffffffffffffffffffffffffffffff161461024e576040517f08c379a00000000000000000000000000000000000000000000000000000000081526004016102459061065c565b60405180910390fd5b8160008054906101000a900473ffffffffffffffffffffffffffffffffffffffff1673ffffffffffffffffffffffffffffffffffffffff168173ffffffffffffffffffffffffffffffffffffffff16146102dd576040517f08c379a00000000000000000000000000000000000000000000000000000000081526004016102d4906106ee565b60405180910390fd5b81600290816102ec91906108c4565b50505050565b600081519050919050565b600082825260208201905092915050565b60005b8381101561032c578082015181840152602081019050610311565b8381111561033b576000848401525b50505050565b6000601f19601f8301169050919050565b600061035d826102f2565b61036781856102fd565b935061037781856020860161030e565b61038081610341565b840191505092915050565b600060208201905081810360008301526103a58184610352565b905092915050565b6000604051905090565b600080fd5b600080fd5b600073ffffffffffffffffffffffffffffffffffffffff82169050919050565b60006103ec826103c1565b9050919050565b6103fc816103e1565b811461040757600080fd5b50565b600081359050610419816103f3565b92915050565b600080fd5b600080fd5b7f4e487b7100000000000000000000000000000000000000000000000000000000600052604160045260246000fd5b61046182610341565b810181811067ffffffffffffffff821117156104805761047f610429565b5b80604052505050565b60006104936103ad565b905061049f8282610458565b919050565b600067ffffffffffffffff8211156104bf576104be610429565b5b6104c882610341565b9050602081019050919050565b82818337600083830152505050565b60006104f76104f2846104a4565b610489565b90508281526020810184848401111561051357610512610424565b5b61051e8482856104d5565b509392505050565b600082601f83011261053b5761053a61041f565b5b813561054b8482602086016104e4565b91505092915050565b6000806040838503121561056b5761056a6103b7565b5b60006105798582860161040a565b925050602083013567ffffffffffffffff81111561059a576105996103bc565b5b6105a685828601610526565b9150509250929050565b7f4e487b7100000000000000000000000000000000000000000000000000000000600052602260045260246000fd5b600060028204905060018216806105f757607f821691505b60208210810361060a576106096105b0565b5b50919050565b7f596f75206e65656420746f207573652074686520666163746f72790000000000600082015250565b6000610646601b836102fd565b915061065182610610565b602082019050919050565b6000602082019050818103600083015261067581610639565b9050919050565b7f596f75277265206e6f7420746865206f776e6572206f662074686520636f6e7460008201527f7261637400000000000000000000000000000000000000000000000000000000602082015250565b60006106d86024836102fd565b91506106e38261067c565b604082019050919050565b60006020820190508181036000830152610707816106cb565b9050919050565b60008190508160005260206000209050919050565b60006020601f8301049050919050565b600082821b905092915050565b6000600883026107707fffffffffffffffffffffffffffffffffffffffffffffffffffffffffffffffff82610733565b61077a8683610733565b95508019841693508086168417925050509392505050565b6000819050919050565b6000819050919050565b60006107c16107bc6107b784610792565b61079c565b610792565b9050919050565b6000819050919050565b6107db836107a6565b6107ef6107e7826107c8565b848454610740565b825550505050565b600090565b6108046107f7565b61080f8184846107d2565b505050565b5b81811015610833576108286000826107fc565b600181019050610815565b5050565b601f821115610878576108498161070e565b61085284610723565b81016020851015610861578190505b61087561086d85610723565b830182610814565b50505b505050565b600082821c905092915050565b600061089b6000198460080261087d565b1980831691505092915050565b60006108b4838361088a565b9150826002028217905092915050565b6108cd826102f2565b67ffffffffffffffff8111156108e6576108e5610429565b5b6108f082546105df565b6108fb828285610837565b600060209050601f83116001811461092e576000841561091c578287015190505b61092685826108a8565b86555061098e565b601f19841661093c8661070e565b60005b828110156109645784890151825560018201915060208501945060208101905061093f565b86831015610981578489015161097d601f89168261088a565b8355505b6001600288020188555050505b50505050505056fea26469706673582212206d367705c3f3050696ae844764e3a9c32088a0477177c42b3e010750a93e449564736f6c634300080f0033",
  "immutableReferences": {},
  "source": "pragma solidity ^0.8.15;\n\ncontract HelloMessage {\n\n   address private _owner;\n   address private _factory;\n   string public _message;\n\n   modifier onlyOwner(address caller) {\n      require(caller == _owner, \"You're not the owner of the contract\");\n      _;\n    }\n\n    modifier onlyFactory() {\n      require(msg.sender == _factory, \"You need to use the factory\");\n      _;\n    }\n\n   constructor(address owner) {\n      _owner = owner;\n      _factory = msg.sender;\n    }\n\n   function getMessage() public view returns (string memory) {\n      return _message;\n    }\n\n    function setMessage(address caller, string memory new_message) public onlyFactory onlyOwner(caller) {\n        _message = new_message;\n    }\n\n}\n\ncontract SenderHello {\n\n    mapping(address => HelloMessage) _messages;\n\n    function createMessage() public {\n        require ( _messages[msg.sender] == HelloMessage(address(0)), \"Message is already created\" );\n        _messages[msg.sender] = new HelloMessage(msg.sender);\n    }\n\n    function setMessage(string memory new_message) public {\n        require (_messages[msg.sender] != HelloMessage(address(0)), \"Message not created yet\" );\n        HelloMessage(_messages[msg.sender]).setMessage(msg.sender, new_message);\n    }\n\n    function getMessage(address account) public view returns (string memory) {\n        require (_messages[account] != HelloMessage(address(0)), \"Message not created yet\" );\n        return (_messages[account].getMessage());\n    }\n\n    function getMyMessage() public view returns (string memory) {\n         require (_messages[msg.sender] != HelloMessage(address(0)), \"Message not created yet\" );\n        return (getMessage(msg.sender));\n    }\n\n}",
  "sourcePath": "/Users/garyjob/Applications/truechain/truffle2/contracts/SenderHello.sol",
  "compiler": {
    "name": "solc",
    "version": "0.8.15+commit.e14f2714.Emscripten.clang"
  },
  "schemaVersion": "3.4.8",
  "updatedAt": "2022-07-25T19:35:37.205Z",
  "devdoc": {
    "kind": "dev",
    "methods": {},
    "version": 1
  },
  "userdoc": {
    "kind": "user",
    "methods": {},
    "version": 1
  }
}