{
  "contractName": "PredictionGame",
  "abi": [
    {
      "inputs": [],
      "name": "createPrediction",
      "outputs": [],
      "stateMutability": "nonpayable",
      "type": "function"
    },
    {
      "inputs": [
        {
          "internalType": "string",
          "name": "new_message",
          "type": "string"
        }
      ],
      "name": "setPrediction",
      "outputs": [],
      "stateMutability": "nonpayable",
      "type": "function"
    },
    {
      "inputs": [
        {
          "internalType": "address",
          "name": "account",
          "type": "address"
        }
      ],
      "name": "getPrediction",
      "outputs": [
        {
          "internalType": "string",
          "name": "",
          "type": "string"
        }
      ],
      "stateMutability": "view",
      "type": "function"
    },
    {
      "inputs": [],
      "name": "getMyPrediction",
      "outputs": [
        {
          "internalType": "string",
          "name": "",
          "type": "string"
        }
      ],
      "stateMutability": "view",
      "type": "function"
    },
    {
      "inputs": [
        {
          "internalType": "address",
          "name": "account",
          "type": "address"
        }
      ],
      "name": "getPredictionOwner",
      "outputs": [
        {
          "internalType": "address",
          "name": "owner",
          "type": "address"
        }
      ],
      "stateMutability": "view",
      "type": "function"
    },
    {
      "inputs": [],
      "name": "getMyPredictionOwner",
      "outputs": [
        {
          "internalType": "address",
          "name": "owner",
          "type": "address"
        }
      ],
      "stateMutability": "view",
      "type": "function"
    }
  ],
  "bytecode": "0x608060405234801561001057600080fd5b5061190d806100206000396000f3fe608060405234801561001057600080fd5b50600436106100625760003560e01c80632d316700146100675780633c0fd040146100715780636f8c5c97146100a1578063eacaced7146100bd578063ebd20e41146100ed578063f2ac80311461010b575b600080fd5b61006f610129565b005b61008b600480360381019061008691906109c6565b6102a8565b6040516100989190610a02565b60405180910390f35b6100bb60048036038101906100b69190610b63565b61044a565b005b6100d760048036038101906100d291906109c6565b6105e5565b6040516100e49190610c34565b60405180910390f35b6100f561078d565b6040516101029190610c34565b60405180910390f35b61011361086a565b6040516101209190610a02565b60405180910390f35b600073ffffffffffffffffffffffffffffffffffffffff166000803373ffffffffffffffffffffffffffffffffffffffff1673ffffffffffffffffffffffffffffffffffffffff16815260200190815260200160002060009054906101000a900473ffffffffffffffffffffffffffffffffffffffff1673ffffffffffffffffffffffffffffffffffffffff16146101f6576040517f08c379a00000000000000000000000000000000000000000000000000000000081526004016101ed90610ca2565b60405180910390fd5b3360405161020390610946565b61020d9190610a02565b604051809103906000f080158015610229573d6000803e3d6000fd5b506000803373ffffffffffffffffffffffffffffffffffffffff1673ffffffffffffffffffffffffffffffffffffffff16815260200190815260200160002060006101000a81548173ffffffffffffffffffffffffffffffffffffffff021916908373ffffffffffffffffffffffffffffffffffffffff160217905550565b60008073ffffffffffffffffffffffffffffffffffffffff166000808473ffffffffffffffffffffffffffffffffffffffff1673ffffffffffffffffffffffffffffffffffffffff16815260200190815260200160002060009054906101000a900473ffffffffffffffffffffffffffffffffffffffff1673ffffffffffffffffffffffffffffffffffffffff1603610376576040517f08c379a000000000000000000000000000000000000000000000000000000000815260040161036d90610d0e565b60405180910390fd5b6000808373ffffffffffffffffffffffffffffffffffffffff1673ffffffffffffffffffffffffffffffffffffffff16815260200190815260200160002060009054906101000a900473ffffffffffffffffffffffffffffffffffffffff1673ffffffffffffffffffffffffffffffffffffffff1663208305ec6040518163ffffffff1660e01b8152600401602060405180830381865afa15801561041f573d6000803e3d6000fd5b505050506040513d601f19601f820116820180604052508101906104439190610d43565b9050919050565b600073ffffffffffffffffffffffffffffffffffffffff166000803373ffffffffffffffffffffffffffffffffffffffff1673ffffffffffffffffffffffffffffffffffffffff16815260200190815260200160002060009054906101000a900473ffffffffffffffffffffffffffffffffffffffff1673ffffffffffffffffffffffffffffffffffffffff1603610517576040517f08c379a000000000000000000000000000000000000000000000000000000000815260040161050e90610d0e565b60405180910390fd5b6000803373ffffffffffffffffffffffffffffffffffffffff1673ffffffffffffffffffffffffffffffffffffffff16815260200190815260200160002060009054906101000a900473ffffffffffffffffffffffffffffffffffffffff1673ffffffffffffffffffffffffffffffffffffffff1663b675f7a133836040518363ffffffff1660e01b81526004016105b0929190610d70565b600060405180830381600087803b1580156105ca57600080fd5b505af11580156105de573d6000803e3d6000fd5b5050505050565b6060600073ffffffffffffffffffffffffffffffffffffffff166000808473ffffffffffffffffffffffffffffffffffffffff1673ffffffffffffffffffffffffffffffffffffffff16815260200190815260200160002060009054906101000a900473ffffffffffffffffffffffffffffffffffffffff1673ffffffffffffffffffffffffffffffffffffffff16036106b4576040517f08c379a00000000000000000000000000000000000000000000000000000000081526004016106ab90610d0e565b60405180910390fd5b6000808373ffffffffffffffffffffffffffffffffffffffff1673ffffffffffffffffffffffffffffffffffffffff16815260200190815260200160002060009054906101000a900473ffffffffffffffffffffffffffffffffffffffff1673ffffffffffffffffffffffffffffffffffffffff16639f615ee16040518163ffffffff1660e01b8152600401600060405180830381865afa15801561075d573d6000803e3d6000fd5b505050506040513d6000823e3d601f19601f820116820180604052508101906107869190610e10565b9050919050565b6060600073ffffffffffffffffffffffffffffffffffffffff166000803373ffffffffffffffffffffffffffffffffffffffff1673ffffffffffffffffffffffffffffffffffffffff16815260200190815260200160002060009054906101000a900473ffffffffffffffffffffffffffffffffffffffff1673ffffffffffffffffffffffffffffffffffffffff160361085c576040517f08c379a000000000000000000000000000000000000000000000000000000000815260040161085390610d0e565b60405180910390fd5b610865336105e5565b905090565b60008073ffffffffffffffffffffffffffffffffffffffff166000803373ffffffffffffffffffffffffffffffffffffffff1673ffffffffffffffffffffffffffffffffffffffff16815260200190815260200160002060009054906101000a900473ffffffffffffffffffffffffffffffffffffffff1673ffffffffffffffffffffffffffffffffffffffff1603610938576040517f08c379a000000000000000000000000000000000000000000000000000000000815260040161092f90610d0e565b60405180910390fd5b610941336102a8565b905090565b610a7e8062000e5a83390190565b6000604051905090565b600080fd5b600080fd5b600073ffffffffffffffffffffffffffffffffffffffff82169050919050565b600061099382610968565b9050919050565b6109a381610988565b81146109ae57600080fd5b50565b6000813590506109c08161099a565b92915050565b6000602082840312156109dc576109db61095e565b5b60006109ea848285016109b1565b91505092915050565b6109fc81610988565b82525050565b6000602082019050610a1760008301846109f3565b92915050565b600080fd5b600080fd5b6000601f19601f8301169050919050565b7f4e487b7100000000000000000000000000000000000000000000000000000000600052604160045260246000fd5b610a7082610a27565b810181811067ffffffffffffffff82111715610a8f57610a8e610a38565b5b80604052505050565b6000610aa2610954565b9050610aae8282610a67565b919050565b600067ffffffffffffffff821115610ace57610acd610a38565b5b610ad782610a27565b9050602081019050919050565b82818337600083830152505050565b6000610b06610b0184610ab3565b610a98565b905082815260208101848484011115610b2257610b21610a22565b5b610b2d848285610ae4565b509392505050565b600082601f830112610b4a57610b49610a1d565b5b8135610b5a848260208601610af3565b91505092915050565b600060208284031215610b7957610b7861095e565b5b600082013567ffffffffffffffff811115610b9757610b96610963565b5b610ba384828501610b35565b91505092915050565b600081519050919050565b600082825260208201905092915050565b60005b83811015610be6578082015181840152602081019050610bcb565b83811115610bf5576000848401525b50505050565b6000610c0682610bac565b610c108185610bb7565b9350610c20818560208601610bc8565b610c2981610a27565b840191505092915050565b60006020820190508181036000830152610c4e8184610bfb565b905092915050565b7f50726564696374696f6e20697320616c72656164792063726561746564000000600082015250565b6000610c8c601d83610bb7565b9150610c9782610c56565b602082019050919050565b60006020820190508181036000830152610cbb81610c7f565b9050919050565b7f50726564696374696f6e206e6f74206372656174656420796574000000000000600082015250565b6000610cf8601a83610bb7565b9150610d0382610cc2565b602082019050919050565b60006020820190508181036000830152610d2781610ceb565b9050919050565b600081519050610d3d8161099a565b92915050565b600060208284031215610d5957610d5861095e565b5b6000610d6784828501610d2e565b91505092915050565b6000604082019050610d8560008301856109f3565b8181036020830152610d978184610bfb565b90509392505050565b6000610db3610dae84610ab3565b610a98565b905082815260208101848484011115610dcf57610dce610a22565b5b610dda848285610bc8565b509392505050565b600082601f830112610df757610df6610a1d565b5b8151610e07848260208601610da0565b91505092915050565b600060208284031215610e2657610e2561095e565b5b600082015167ffffffffffffffff811115610e4457610e43610963565b5b610e5084828501610de2565b9150509291505056fe608060405234801561001057600080fd5b50604051610a7e380380610a7e8339818101604052810190610032919061011c565b806000806101000a81548173ffffffffffffffffffffffffffffffffffffffff021916908373ffffffffffffffffffffffffffffffffffffffff16021790555033600160006101000a81548173ffffffffffffffffffffffffffffffffffffffff021916908373ffffffffffffffffffffffffffffffffffffffff16021790555050610149565b600080fd5b600073ffffffffffffffffffffffffffffffffffffffff82169050919050565b60006100e9826100be565b9050919050565b6100f9816100de565b811461010457600080fd5b50565b600081519050610116816100f0565b92915050565b600060208284031215610132576101316100b9565b5b600061014084828501610107565b91505092915050565b610926806101586000396000f3fe608060405234801561001057600080fd5b506004361061004c5760003560e01c80630adde0eb14610051578063208305ec1461006f5780639f615ee11461008d578063b675f7a1146100ab575b600080fd5b6100596100c7565b604051610066919061034d565b60405180910390f35b610077610155565b60405161008491906103b0565b60405180910390f35b61009561017e565b6040516100a2919061034d565b60405180910390f35b6100c560048036038101906100c09190610540565b610210565b005b600280546100d4906105cb565b80601f0160208091040260200160405190810160405280929190818152602001828054610100906105cb565b801561014d5780601f106101225761010080835404028352916020019161014d565b820191906000526020600020905b81548152906001019060200180831161013057829003601f168201915b505050505081565b60008060009054906101000a900473ffffffffffffffffffffffffffffffffffffffff16905090565b60606002805461018d906105cb565b80601f01602080910402602001604051908101604052809291908181526020018280546101b9906105cb565b80156102065780601f106101db57610100808354040283529160200191610206565b820191906000526020600020905b8154815290600101906020018083116101e957829003601f168201915b5050505050905090565b600160009054906101000a900473ffffffffffffffffffffffffffffffffffffffff1673ffffffffffffffffffffffffffffffffffffffff163373ffffffffffffffffffffffffffffffffffffffff16146102a0576040517f08c379a000000000000000000000000000000000000000000000000000000000815260040161029790610648565b60405180910390fd5b80600290816102af919061081e565b505050565b600081519050919050565b600082825260208201905092915050565b60005b838110156102ee5780820151818401526020810190506102d3565b838111156102fd576000848401525b50505050565b6000601f19601f8301169050919050565b600061031f826102b4565b61032981856102bf565b93506103398185602086016102d0565b61034281610303565b840191505092915050565b600060208201905081810360008301526103678184610314565b905092915050565b600073ffffffffffffffffffffffffffffffffffffffff82169050919050565b600061039a8261036f565b9050919050565b6103aa8161038f565b82525050565b60006020820190506103c560008301846103a1565b92915050565b6000604051905090565b600080fd5b600080fd5b6103e88161038f565b81146103f357600080fd5b50565b600081359050610405816103df565b92915050565b600080fd5b600080fd5b7f4e487b7100000000000000000000000000000000000000000000000000000000600052604160045260246000fd5b61044d82610303565b810181811067ffffffffffffffff8211171561046c5761046b610415565b5b80604052505050565b600061047f6103cb565b905061048b8282610444565b919050565b600067ffffffffffffffff8211156104ab576104aa610415565b5b6104b482610303565b9050602081019050919050565b82818337600083830152505050565b60006104e36104de84610490565b610475565b9050828152602081018484840111156104ff576104fe610410565b5b61050a8482856104c1565b509392505050565b600082601f8301126105275761052661040b565b5b81356105378482602086016104d0565b91505092915050565b60008060408385031215610557576105566103d5565b5b6000610565858286016103f6565b925050602083013567ffffffffffffffff811115610586576105856103da565b5b61059285828601610512565b9150509250929050565b7f4e487b7100000000000000000000000000000000000000000000000000000000600052602260045260246000fd5b600060028204905060018216806105e357607f821691505b6020821081036105f6576105f561059c565b5b50919050565b7f596f75206e65656420746f207573652074686520666163746f72790000000000600082015250565b6000610632601b836102bf565b915061063d826105fc565b602082019050919050565b6000602082019050818103600083015261066181610625565b9050919050565b60008190508160005260206000209050919050565b60006020601f8301049050919050565b600082821b905092915050565b6000600883026106ca7fffffffffffffffffffffffffffffffffffffffffffffffffffffffffffffffff8261068d565b6106d4868361068d565b95508019841693508086168417925050509392505050565b6000819050919050565b6000819050919050565b600061071b610716610711846106ec565b6106f6565b6106ec565b9050919050565b6000819050919050565b61073583610700565b61074961074182610722565b84845461069a565b825550505050565b600090565b61075e610751565b61076981848461072c565b505050565b5b8181101561078d57610782600082610756565b60018101905061076f565b5050565b601f8211156107d2576107a381610668565b6107ac8461067d565b810160208510156107bb578190505b6107cf6107c78561067d565b83018261076e565b50505b505050565b600082821c905092915050565b60006107f5600019846008026107d7565b1980831691505092915050565b600061080e83836107e4565b9150826002028217905092915050565b610827826102b4565b67ffffffffffffffff8111156108405761083f610415565b5b61084a82546105cb565b610855828285610791565b600060209050601f8311600181146108885760008415610876578287015190505b6108808582610802565b8655506108e8565b601f19841661089686610668565b60005b828110156108be57848901518255600182019150602085019450602081019050610899565b868310156108db57848901516108d7601f8916826107e4565b8355505b6001600288020188555050505b50505050505056fea2646970667358221220bd73e92c2e8599997033dbb75042e6aa9c06a45c69e381bb55441f3f67dc9bed64736f6c634300080f0033a26469706673582212201071fbe2baa367a1843be2232b90d756086d95ac4f65df8386dac4d5c10a539e64736f6c634300080f0033",
  "immutableReferences": {},
  "source": "pragma solidity ^0.8.15;\n\ncontract Prediction {\n\n   address private _owner;\n   address private _factory;\n   string public _message;\n\n   modifier onlyOwner(address caller) {\n      require(caller == _owner, \"You're not the owner of the contract\");\n      _;\n    }\n\n    modifier onlyFactory() {\n      require(msg.sender == _factory, \"You need to use the factory\");\n      _;\n    }\n\n   constructor(address owner) {\n      _owner = owner;\n      _factory = msg.sender;\n    }\n\n   function getPrediction() public view returns (string memory) {\n      return _message;\n    }\n\n    function setPrediction(address caller, string memory new_message) public onlyFactory {\n        _message = new_message;\n    }\n\n   function getPredictionOwner() public view returns (address owner) {\n      return _owner;\n    }    \n\n}\n\ncontract PredictionGame {\n\n    mapping(address => Prediction) _predictions;\n\n    function createPrediction() public {\n        require ( _predictions[msg.sender] == Prediction(address(0)), \"Prediction is already created\" );\n        _predictions[msg.sender] = new Prediction(msg.sender);\n    }\n\n    function setPrediction(string memory new_message) public {\n        require (_predictions[msg.sender] != Prediction(address(0)), \"Prediction not created yet\" );\n        Prediction(_predictions[msg.sender]).setPrediction(msg.sender, new_message);\n    }\n\n    function getPrediction(address account) public view returns (string memory) {\n        require (_predictions[account] != Prediction(address(0)), \"Prediction not created yet\" );\n        return (_predictions[account].getPrediction());\n    }\n\n    function getMyPrediction() public view returns (string memory) {\n         require (_predictions[msg.sender] != Prediction(address(0)), \"Prediction not created yet\" );\n        return (getPrediction(msg.sender));\n    }\n\n    function getPredictionOwner(address account) public view returns (address owner) {\n        require (_predictions[account] != Prediction(address(0)), \"Prediction not created yet\" );\n        return (_predictions[account].getPredictionOwner());\n    }\n\n    function getMyPredictionOwner() public view returns (address owner) {\n        require (_predictions[msg.sender] != Prediction(address(0)), \"Prediction not created yet\" );\n        return (getPredictionOwner(msg.sender));\n    }    \n\n}",
  "sourcePath": "/Users/garyjob/Applications/truechain/truffle_actual/contracts/PredictionGame.sol",
  "compiler": {
    "name": "solc",
    "version": "0.8.15+commit.e14f2714.Emscripten.clang"
  },
  "schemaVersion": "3.4.8",
  "updatedAt": "2022-08-11T20:25:18.139Z",
  "devdoc": {
    "kind": "dev",
    "methods": {},
    "version": 1
  },
  "userdoc": {
    "kind": "user",
    "methods": {},
    "version": 1
  }
}