{
  "contractName": "SenderHello3",
  "abi": [
    {
      "inputs": [],
      "name": "createMessage",
      "outputs": [],
      "stateMutability": "nonpayable",
      "type": "function"
    },
    {
      "inputs": [
        {
          "internalType": "string",
          "name": "new_message",
          "type": "string"
        }
      ],
      "name": "setMessage",
      "outputs": [],
      "stateMutability": "nonpayable",
      "type": "function"
    },
    {
      "inputs": [
        {
          "internalType": "address",
          "name": "account",
          "type": "address"
        }
      ],
      "name": "getMessage",
      "outputs": [
        {
          "internalType": "string",
          "name": "",
          "type": "string"
        }
      ],
      "stateMutability": "view",
      "type": "function",
      "constant": true
    },
    {
      "inputs": [],
      "name": "getMyMessage",
      "outputs": [
        {
          "internalType": "string",
          "name": "",
          "type": "string"
        }
      ],
      "stateMutability": "view",
      "type": "function",
      "constant": true
    },
    {
      "inputs": [
        {
          "internalType": "address",
          "name": "account",
          "type": "address"
        }
      ],
      "name": "getMessageOwner",
      "outputs": [
        {
          "internalType": "address",
          "name": "owner",
          "type": "address"
        }
      ],
      "stateMutability": "view",
      "type": "function",
      "constant": true
    },
    {
      "inputs": [],
      "name": "getMyMessageOwner",
      "outputs": [
        {
          "internalType": "address",
          "name": "owner",
          "type": "address"
        }
      ],
      "stateMutability": "view",
      "type": "function",
      "constant": true
    },
    {
      "inputs": [
        {
          "internalType": "address",
          "name": "account",
          "type": "address"
        }
      ],
      "name": "validateMessage",
      "outputs": [],
      "stateMutability": "nonpayable",
      "type": "function"
    },
    {
      "inputs": [
        {
          "internalType": "address",
          "name": "account",
          "type": "address"
        }
      ],
      "name": "invalidateMessage",
      "outputs": [],
      "stateMutability": "nonpayable",
      "type": "function"
    }
  ],
  "bytecode": "0x608060405234801561001057600080fd5b50611f71806100206000396000f3fe60806040523480156200001157600080fd5b5060043610620000945760003560e01c806376c62899116200006357806376c6289914620001455780637bcb8167146200015157806398f6c9b31462000173578063db80623514620001935762000094565b8063368b87721462000099578063500d76c514620000b95780635183427e14620000ef57806355448fe1146200010f575b600080fd5b620000b76004803603810190620000b1919062000e9f565b620001b5565b005b620000d76004803603810190620000d1919062000f55565b62000357565b604051620000e6919062000f98565b60405180910390f35b6200010d600480360381019062000107919062000f55565b620004ff565b005b6200012d600480360381019062000127919062000f55565b62000691565b6040516200013c919062001048565b60405180910390f35b6200014f6200083f565b005b6200015b620009c6565b6040516200016a919062001048565b60405180910390f35b6200019160048036038101906200018b919062000f55565b62000aa8565b005b6200019d62000c3a565b604051620001ac919062000f98565b60405180910390f35b600073ffffffffffffffffffffffffffffffffffffffff166000803373ffffffffffffffffffffffffffffffffffffffff1673ffffffffffffffffffffffffffffffffffffffff16815260200190815260200160002060009054906101000a900473ffffffffffffffffffffffffffffffffffffffff1673ffffffffffffffffffffffffffffffffffffffff160362000285576040517f08c379a00000000000000000000000000000000000000000000000000000000081526004016200027c90620010bc565b60405180910390fd5b6000803373ffffffffffffffffffffffffffffffffffffffff1673ffffffffffffffffffffffffffffffffffffffff16815260200190815260200160002060009054906101000a900473ffffffffffffffffffffffffffffffffffffffff1673ffffffffffffffffffffffffffffffffffffffff1663e9aa460f33836040518363ffffffff1660e01b815260040162000320929190620010de565b600060405180830381600087803b1580156200033b57600080fd5b505af115801562000350573d6000803e3d6000fd5b5050505050565b60008073ffffffffffffffffffffffffffffffffffffffff166000808473ffffffffffffffffffffffffffffffffffffffff1673ffffffffffffffffffffffffffffffffffffffff16815260200190815260200160002060009054906101000a900473ffffffffffffffffffffffffffffffffffffffff1673ffffffffffffffffffffffffffffffffffffffff160362000428576040517f08c379a00000000000000000000000000000000000000000000000000000000081526004016200041f90620010bc565b60405180910390fd5b6000808373ffffffffffffffffffffffffffffffffffffffff1673ffffffffffffffffffffffffffffffffffffffff16815260200190815260200160002060009054906101000a900473ffffffffffffffffffffffffffffffffffffffff1673ffffffffffffffffffffffffffffffffffffffff16636a75320b6040518163ffffffff1660e01b8152600401602060405180830381865afa158015620004d2573d6000803e3d6000fd5b505050506040513d601f19601f82011682018060405250810190620004f8919062001129565b9050919050565b8073ffffffffffffffffffffffffffffffffffffffff166000808373ffffffffffffffffffffffffffffffffffffffff1673ffffffffffffffffffffffffffffffffffffffff16815260200190815260200160002060009054906101000a900473ffffffffffffffffffffffffffffffffffffffff1673ffffffffffffffffffffffffffffffffffffffff1603620005ce576040517f08c379a0000000000000000000000000000000000000000000000000000000008152600401620005c590620010bc565b60405180910390fd5b6000808273ffffffffffffffffffffffffffffffffffffffff1673ffffffffffffffffffffffffffffffffffffffff16815260200190815260200160002060009054906101000a900473ffffffffffffffffffffffffffffffffffffffff1673ffffffffffffffffffffffffffffffffffffffff16639fb2fff46040518163ffffffff1660e01b8152600401600060405180830381600087803b1580156200067557600080fd5b505af11580156200068a573d6000803e3d6000fd5b5050505050565b6060600073ffffffffffffffffffffffffffffffffffffffff166000808473ffffffffffffffffffffffffffffffffffffffff1673ffffffffffffffffffffffffffffffffffffffff16815260200190815260200160002060009054906101000a900473ffffffffffffffffffffffffffffffffffffffff1673ffffffffffffffffffffffffffffffffffffffff160362000763576040517f08c379a00000000000000000000000000000000000000000000000000000000081526004016200075a90620010bc565b60405180910390fd5b6000808373ffffffffffffffffffffffffffffffffffffffff1673ffffffffffffffffffffffffffffffffffffffff16815260200190815260200160002060009054906101000a900473ffffffffffffffffffffffffffffffffffffffff1673ffffffffffffffffffffffffffffffffffffffff1663ce6d41de6040518163ffffffff1660e01b8152600401600060405180830381865afa1580156200080d573d6000803e3d6000fd5b505050506040513d6000823e3d601f19601f82011682018060405250810190620008389190620011d9565b9050919050565b600073ffffffffffffffffffffffffffffffffffffffff166000803373ffffffffffffffffffffffffffffffffffffffff1673ffffffffffffffffffffffffffffffffffffffff16815260200190815260200160002060009054906101000a900473ffffffffffffffffffffffffffffffffffffffff1673ffffffffffffffffffffffffffffffffffffffff16146200090f576040517f08c379a000000000000000000000000000000000000000000000000000000000815260040162000906906200127a565b60405180910390fd5b336040516200091e9062000d1b565b6200092a919062000f98565b604051809103906000f08015801562000947573d6000803e3d6000fd5b506000803373ffffffffffffffffffffffffffffffffffffffff1673ffffffffffffffffffffffffffffffffffffffff16815260200190815260200160002060006101000a81548173ffffffffffffffffffffffffffffffffffffffff021916908373ffffffffffffffffffffffffffffffffffffffff160217905550565b6060600073ffffffffffffffffffffffffffffffffffffffff166000803373ffffffffffffffffffffffffffffffffffffffff1673ffffffffffffffffffffffffffffffffffffffff16815260200190815260200160002060009054906101000a900473ffffffffffffffffffffffffffffffffffffffff1673ffffffffffffffffffffffffffffffffffffffff160362000a98576040517f08c379a000000000000000000000000000000000000000000000000000000000815260040162000a8f90620010bc565b60405180910390fd5b62000aa33362000691565b905090565b8073ffffffffffffffffffffffffffffffffffffffff166000808373ffffffffffffffffffffffffffffffffffffffff1673ffffffffffffffffffffffffffffffffffffffff16815260200190815260200160002060009054906101000a900473ffffffffffffffffffffffffffffffffffffffff1673ffffffffffffffffffffffffffffffffffffffff160362000b77576040517f08c379a000000000000000000000000000000000000000000000000000000000815260040162000b6e90620010bc565b60405180910390fd5b6000808273ffffffffffffffffffffffffffffffffffffffff1673ffffffffffffffffffffffffffffffffffffffff16815260200190815260200160002060009054906101000a900473ffffffffffffffffffffffffffffffffffffffff1673ffffffffffffffffffffffffffffffffffffffff16636901f6686040518163ffffffff1660e01b8152600401600060405180830381600087803b15801562000c1e57600080fd5b505af115801562000c33573d6000803e3d6000fd5b5050505050565b60008073ffffffffffffffffffffffffffffffffffffffff166000803373ffffffffffffffffffffffffffffffffffffffff1673ffffffffffffffffffffffffffffffffffffffff16815260200190815260200160002060009054906101000a900473ffffffffffffffffffffffffffffffffffffffff1673ffffffffffffffffffffffffffffffffffffffff160362000d0b576040517f08c379a000000000000000000000000000000000000000000000000000000000815260040162000d0290620010bc565b60405180910390fd5b62000d163362000357565b905090565b610c9f806200129d83390190565b6000604051905090565b600080fd5b600080fd5b600080fd5b600080fd5b6000601f19601f8301169050919050565b7f4e487b7100000000000000000000000000000000000000000000000000000000600052604160045260246000fd5b62000d928262000d47565b810181811067ffffffffffffffff8211171562000db45762000db362000d58565b5b80604052505050565b600062000dc962000d29565b905062000dd7828262000d87565b919050565b600067ffffffffffffffff82111562000dfa5762000df962000d58565b5b62000e058262000d47565b9050602081019050919050565b82818337600083830152505050565b600062000e3862000e328462000ddc565b62000dbd565b90508281526020810184848401111562000e575762000e5662000d42565b5b62000e6484828562000e12565b509392505050565b600082601f83011262000e845762000e8362000d3d565b5b813562000e9684826020860162000e21565b91505092915050565b60006020828403121562000eb85762000eb762000d33565b5b600082013567ffffffffffffffff81111562000ed95762000ed862000d38565b5b62000ee78482850162000e6c565b91505092915050565b600073ffffffffffffffffffffffffffffffffffffffff82169050919050565b600062000f1d8262000ef0565b9050919050565b62000f2f8162000f10565b811462000f3b57600080fd5b50565b60008135905062000f4f8162000f24565b92915050565b60006020828403121562000f6e5762000f6d62000d33565b5b600062000f7e8482850162000f3e565b91505092915050565b62000f928162000f10565b82525050565b600060208201905062000faf600083018462000f87565b92915050565b600081519050919050565b600082825260208201905092915050565b60005b8381101562000ff157808201518184015260208101905062000fd4565b8381111562001001576000848401525b50505050565b6000620010148262000fb5565b62001020818562000fc0565b93506200103281856020860162000fd1565b6200103d8162000d47565b840191505092915050565b6000602082019050818103600083015262001064818462001007565b905092915050565b7f4d657373616765206e6f74206372656174656420796574000000000000000000600082015250565b6000620010a460178362000fc0565b9150620010b1826200106c565b602082019050919050565b60006020820190508181036000830152620010d78162001095565b9050919050565b6000604082019050620010f5600083018562000f87565b818103602083015262001109818462001007565b90509392505050565b600081519050620011238162000f24565b92915050565b60006020828403121562001142576200114162000d33565b5b6000620011528482850162001112565b91505092915050565b6000620011726200116c8462000ddc565b62000dbd565b90508281526020810184848401111562001191576200119062000d42565b5b6200119e84828562000fd1565b509392505050565b600082601f830112620011be57620011bd62000d3d565b5b8151620011d08482602086016200115b565b91505092915050565b600060208284031215620011f257620011f162000d33565b5b600082015167ffffffffffffffff81111562001213576200121262000d38565b5b6200122184828501620011a6565b91505092915050565b7f4d65737361676520697320616c72656164792063726561746564000000000000600082015250565b600062001262601a8362000fc0565b91506200126f826200122a565b602082019050919050565b60006020820190508181036000830152620012958162001253565b905091905056fe608060405234801561001057600080fd5b50604051610c9f380380610c9f83398181016040528101906100329190610137565b806000806101000a81548173ffffffffffffffffffffffffffffffffffffffff021916908373ffffffffffffffffffffffffffffffffffffffff16021790555033600160006101000a81548173ffffffffffffffffffffffffffffffffffffffff021916908373ffffffffffffffffffffffffffffffffffffffff1602179055506000600360006101000a81548160ff02191690831515021790555050610164565b600080fd5b600073ffffffffffffffffffffffffffffffffffffffff82169050919050565b6000610104826100d9565b9050919050565b610114816100f9565b811461011f57600080fd5b50565b6000815190506101318161010b565b92915050565b60006020828403121561014d5761014c6100d4565b5b600061015b84828501610122565b91505092915050565b610b2c806101736000396000f3fe608060405234801561001057600080fd5b506004361061007d5760003560e01c80639fb2fff41161005b5780639fb2fff4146100c8578063ce6d41de146100d2578063e9aa460f146100f0578063f8b877281461010c5761007d565b80630adde0eb146100825780636901f668146100a05780636a75320b146100aa575b600080fd5b61008a61012a565b604051610097919061051d565b60405180910390f35b6100a86101b8565b005b6100b2610265565b6040516100bf9190610580565b60405180910390f35b6100d061028e565b005b6100da61033b565b6040516100e7919061051d565b60405180910390f35b61010a60048036038101906101059190610710565b6103cd565b005b610114610471565b6040516101219190610787565b60405180910390f35b60028054610137906107d1565b80601f0160208091040260200160405190810160405280929190818152602001828054610163906107d1565b80156101b05780601f10610185576101008083540402835291602001916101b0565b820191906000526020600020905b81548152906001019060200180831161019357829003601f168201915b505050505081565b600160009054906101000a900473ffffffffffffffffffffffffffffffffffffffff1673ffffffffffffffffffffffffffffffffffffffff163373ffffffffffffffffffffffffffffffffffffffff1614610248576040517f08c379a000000000000000000000000000000000000000000000000000000000815260040161023f9061084e565b60405180910390fd5b6001600360006101000a81548160ff021916908315150217905550565b60008060009054906101000a900473ffffffffffffffffffffffffffffffffffffffff16905090565b600160009054906101000a900473ffffffffffffffffffffffffffffffffffffffff1673ffffffffffffffffffffffffffffffffffffffff163373ffffffffffffffffffffffffffffffffffffffff161461031e576040517f08c379a00000000000000000000000000000000000000000000000000000000081526004016103159061084e565b60405180910390fd5b6000600360006101000a81548160ff021916908315150217905550565b60606002805461034a906107d1565b80601f0160208091040260200160405190810160405280929190818152602001828054610376906107d1565b80156103c35780601f10610398576101008083540402835291602001916103c3565b820191906000526020600020905b8154815290600101906020018083116103a657829003601f168201915b5050505050905090565b600160009054906101000a900473ffffffffffffffffffffffffffffffffffffffff1673ffffffffffffffffffffffffffffffffffffffff163373ffffffffffffffffffffffffffffffffffffffff161461045d576040517f08c379a00000000000000000000000000000000000000000000000000000000081526004016104549061084e565b60405180910390fd5b806002908161046c9190610a24565b505050565b600360009054906101000a900460ff1681565b600081519050919050565b600082825260208201905092915050565b60005b838110156104be5780820151818401526020810190506104a3565b838111156104cd576000848401525b50505050565b6000601f19601f8301169050919050565b60006104ef82610484565b6104f9818561048f565b93506105098185602086016104a0565b610512816104d3565b840191505092915050565b6000602082019050818103600083015261053781846104e4565b905092915050565b600073ffffffffffffffffffffffffffffffffffffffff82169050919050565b600061056a8261053f565b9050919050565b61057a8161055f565b82525050565b60006020820190506105956000830184610571565b92915050565b6000604051905090565b600080fd5b600080fd5b6105b88161055f565b81146105c357600080fd5b50565b6000813590506105d5816105af565b92915050565b600080fd5b600080fd5b7f4e487b7100000000000000000000000000000000000000000000000000000000600052604160045260246000fd5b61061d826104d3565b810181811067ffffffffffffffff8211171561063c5761063b6105e5565b5b80604052505050565b600061064f61059b565b905061065b8282610614565b919050565b600067ffffffffffffffff82111561067b5761067a6105e5565b5b610684826104d3565b9050602081019050919050565b82818337600083830152505050565b60006106b36106ae84610660565b610645565b9050828152602081018484840111156106cf576106ce6105e0565b5b6106da848285610691565b509392505050565b600082601f8301126106f7576106f66105db565b5b81356107078482602086016106a0565b91505092915050565b60008060408385031215610727576107266105a5565b5b6000610735858286016105c6565b925050602083013567ffffffffffffffff811115610756576107556105aa565b5b610762858286016106e2565b9150509250929050565b60008115159050919050565b6107818161076c565b82525050565b600060208201905061079c6000830184610778565b92915050565b7f4e487b7100000000000000000000000000000000000000000000000000000000600052602260045260246000fd5b600060028204905060018216806107e957607f821691505b6020821081036107fc576107fb6107a2565b5b50919050565b7f596f75206e65656420746f207573652074686520666163746f72790000000000600082015250565b6000610838601b8361048f565b915061084382610802565b602082019050919050565b600060208201905081810360008301526108678161082b565b9050919050565b60008190508160005260206000209050919050565b60006020601f8301049050919050565b600082821b905092915050565b6000600883026108d07fffffffffffffffffffffffffffffffffffffffffffffffffffffffffffffffff82610893565b6108da8683610893565b95508019841693508086168417925050509392505050565b6000819050919050565b6000819050919050565b600061092161091c610917846108f2565b6108fc565b6108f2565b9050919050565b6000819050919050565b61093b83610906565b61094f61094782610928565b8484546108a0565b825550505050565b600090565b610964610957565b61096f818484610932565b505050565b5b818110156109935761098860008261095c565b600181019050610975565b5050565b601f8211156109d8576109a98161086e565b6109b284610883565b810160208510156109c1578190505b6109d56109cd85610883565b830182610974565b50505b505050565b600082821c905092915050565b60006109fb600019846008026109dd565b1980831691505092915050565b6000610a1483836109ea565b9150826002028217905092915050565b610a2d82610484565b67ffffffffffffffff811115610a4657610a456105e5565b5b610a5082546107d1565b610a5b828285610997565b600060209050601f831160018114610a8e5760008415610a7c578287015190505b610a868582610a08565b865550610aee565b601f198416610a9c8661086e565b60005b82811015610ac457848901518255600182019150602085019450602081019050610a9f565b86831015610ae15784890151610add601f8916826109ea565b8355505b6001600288020188555050505b50505050505056fea264697066735822122075ffc41e7cc621e356c00c64d2fccfc20943aaa732bff1cedaf45eafcd3f2d5064736f6c634300080f0033a264697066735822122096368148ce5ea8a67e49fd98eff3bf8cd8045c2bb5a2a91c194c4b83ba53b5d464736f6c634300080f0033",
  "immutableReferences": {},
  "source": "pragma solidity ^0.8.15;\n\ncontract HelloMessage3 {\n\n   address private _owner;\n   address private _factory;\n   string public _message;\n   bool public _validated;\n\n   modifier onlyOwner(address caller) {\n      require(caller == _owner, \"You're not the owner of the contract\");\n      _;\n    }\n\n    modifier onlyFactory() {\n      require(msg.sender == _factory, \"You need to use the factory\");\n      _;\n    }\n\n    constructor(address owner) {\n      _owner = owner;\n      _factory = msg.sender;\n      _validated = false;\n    }\n\n    function getMessage() public view returns (string memory) {\n      return _message;\n    }\n\n    function setMessage(address caller, string memory new_message) public onlyFactory {\n        _message = new_message;\n    }\n\n    function getMessageOwner() public view returns (address owner) {\n      return _owner;\n    }\n\n    function validate() public onlyFactory {\n      _validated = true;\n    }    \n\n    function invalidate() public onlyFactory {\n      _validated = false;\n    }        \n\n}\n\ncontract SenderHello3 {\n\n    mapping(address => HelloMessage3) _messages;\n\n    function createMessage() public {\n        require ( _messages[msg.sender] == HelloMessage3(address(0)), \"Message is already created\" );\n        _messages[msg.sender] = new HelloMessage3(msg.sender);\n    }\n\n    function setMessage(string memory new_message) public {\n        require (_messages[msg.sender] != HelloMessage3(address(0)), \"Message not created yet\" );\n        HelloMessage3(_messages[msg.sender]).setMessage(msg.sender, new_message);\n    }\n\n    function getMessage(address account) public view returns (string memory) {\n        require (_messages[account] != HelloMessage3(address(0)), \"Message not created yet\" );\n        return (_messages[account].getMessage());\n    }\n\n    function getMyMessage() public view returns (string memory) {\n         require (_messages[msg.sender] != HelloMessage3(address(0)), \"Message not created yet\" );\n        return (getMessage(msg.sender));\n    }\n\n    function getMessageOwner(address account) public view returns (address owner) {\n        require (_messages[account] != HelloMessage3(address(0)), \"Message not created yet\" );\n        return (_messages[account].getMessageOwner());\n    }\n\n    function getMyMessageOwner() public view returns (address owner) {\n        require (_messages[msg.sender] != HelloMessage3(address(0)), \"Message not created yet\" );\n        return (getMessageOwner(msg.sender));\n    }    \n\n    function validateMessage(address account) public {\n        require (_messages[account] != HelloMessage3(account), \"Message not created yet\" );\n        HelloMessage3(_messages[account]).validate();\n    }\n\n    function invalidateMessage(address account) public {\n        require (_messages[account] != HelloMessage3(account), \"Message not created yet\" );\n        HelloMessage3(_messages[account]).invalidate();\n    }\n\n}",
  "sourcePath": "/Users/garyjob/Applications/truechain/truffle_actual/contracts/SenderHello3.sol",
  "compiler": {
    "name": "solc",
    "version": "0.8.15+commit.e14f2714.Emscripten.clang"
  },
  "schemaVersion": "3.4.8",
  "updatedAt": "2022-08-11T20:38:27.979Z",
  "networkType": "ethereum",
  "devdoc": {
    "kind": "dev",
    "methods": {},
    "version": 1
  },
  "userdoc": {
    "kind": "user",
    "methods": {},
    "version": 1
  }
}