{
  "contractName": "SenderHello2",
  "abi": [
    {
      "inputs": [],
      "name": "createMessage",
      "outputs": [],
      "stateMutability": "nonpayable",
      "type": "function"
    },
    {
      "inputs": [
        {
          "internalType": "string",
          "name": "new_message",
          "type": "string"
        }
      ],
      "name": "setMessage",
      "outputs": [],
      "stateMutability": "nonpayable",
      "type": "function"
    },
    {
      "inputs": [
        {
          "internalType": "address",
          "name": "account",
          "type": "address"
        }
      ],
      "name": "getMessage",
      "outputs": [
        {
          "internalType": "string",
          "name": "",
          "type": "string"
        }
      ],
      "stateMutability": "view",
      "type": "function",
      "constant": true
    },
    {
      "inputs": [],
      "name": "getMyMessage",
      "outputs": [
        {
          "internalType": "string",
          "name": "",
          "type": "string"
        }
      ],
      "stateMutability": "view",
      "type": "function",
      "constant": true
    },
    {
      "inputs": [
        {
          "internalType": "address",
          "name": "account",
          "type": "address"
        }
      ],
      "name": "getMessageOwner",
      "outputs": [
        {
          "internalType": "address",
          "name": "owner",
          "type": "address"
        }
      ],
      "stateMutability": "view",
      "type": "function",
      "constant": true
    },
    {
      "inputs": [],
      "name": "getMyMessageOwner",
      "outputs": [
        {
          "internalType": "address",
          "name": "owner",
          "type": "address"
        }
      ],
      "stateMutability": "view",
      "type": "function",
      "constant": true
    }
  ],
  "bytecode": "0x608060405234801561001057600080fd5b5061190d806100206000396000f3fe608060405234801561001057600080fd5b50600436106100625760003560e01c8063368b877214610067578063500d76c51461008357806355448fe1146100b357806376c62899146100e35780637bcb8167146100ed578063db8062351461010b575b600080fd5b610081600480360381019061007c9190610aae565b610129565b005b61009d60048036038101906100989190610b55565b6102c4565b6040516100aa9190610b91565b60405180910390f35b6100cd60048036038101906100c89190610b55565b610466565b6040516100da9190610c34565b60405180910390f35b6100eb61060e565b005b6100f561078d565b6040516101029190610c34565b60405180910390f35b61011361086a565b6040516101209190610b91565b60405180910390f35b600073ffffffffffffffffffffffffffffffffffffffff166000803373ffffffffffffffffffffffffffffffffffffffff1673ffffffffffffffffffffffffffffffffffffffff16815260200190815260200160002060009054906101000a900473ffffffffffffffffffffffffffffffffffffffff1673ffffffffffffffffffffffffffffffffffffffff16036101f6576040517f08c379a00000000000000000000000000000000000000000000000000000000081526004016101ed90610ca2565b60405180910390fd5b6000803373ffffffffffffffffffffffffffffffffffffffff1673ffffffffffffffffffffffffffffffffffffffff16815260200190815260200160002060009054906101000a900473ffffffffffffffffffffffffffffffffffffffff1673ffffffffffffffffffffffffffffffffffffffff1663e9aa460f33836040518363ffffffff1660e01b815260040161028f929190610cc2565b600060405180830381600087803b1580156102a957600080fd5b505af11580156102bd573d6000803e3d6000fd5b5050505050565b60008073ffffffffffffffffffffffffffffffffffffffff166000808473ffffffffffffffffffffffffffffffffffffffff1673ffffffffffffffffffffffffffffffffffffffff16815260200190815260200160002060009054906101000a900473ffffffffffffffffffffffffffffffffffffffff1673ffffffffffffffffffffffffffffffffffffffff1603610392576040517f08c379a000000000000000000000000000000000000000000000000000000000815260040161038990610ca2565b60405180910390fd5b6000808373ffffffffffffffffffffffffffffffffffffffff1673ffffffffffffffffffffffffffffffffffffffff16815260200190815260200160002060009054906101000a900473ffffffffffffffffffffffffffffffffffffffff1673ffffffffffffffffffffffffffffffffffffffff16636a75320b6040518163ffffffff1660e01b8152600401602060405180830381865afa15801561043b573d6000803e3d6000fd5b505050506040513d601f19601f8201168201806040525081019061045f9190610d07565b9050919050565b6060600073ffffffffffffffffffffffffffffffffffffffff166000808473ffffffffffffffffffffffffffffffffffffffff1673ffffffffffffffffffffffffffffffffffffffff16815260200190815260200160002060009054906101000a900473ffffffffffffffffffffffffffffffffffffffff1673ffffffffffffffffffffffffffffffffffffffff1603610535576040517f08c379a000000000000000000000000000000000000000000000000000000000815260040161052c90610ca2565b60405180910390fd5b6000808373ffffffffffffffffffffffffffffffffffffffff1673ffffffffffffffffffffffffffffffffffffffff16815260200190815260200160002060009054906101000a900473ffffffffffffffffffffffffffffffffffffffff1673ffffffffffffffffffffffffffffffffffffffff1663ce6d41de6040518163ffffffff1660e01b8152600401600060405180830381865afa1580156105de573d6000803e3d6000fd5b505050506040513d6000823e3d601f19601f820116820180604052508101906106079190610da4565b9050919050565b600073ffffffffffffffffffffffffffffffffffffffff166000803373ffffffffffffffffffffffffffffffffffffffff1673ffffffffffffffffffffffffffffffffffffffff16815260200190815260200160002060009054906101000a900473ffffffffffffffffffffffffffffffffffffffff1673ffffffffffffffffffffffffffffffffffffffff16146106db576040517f08c379a00000000000000000000000000000000000000000000000000000000081526004016106d290610e39565b60405180910390fd5b336040516106e890610946565b6106f29190610b91565b604051809103906000f08015801561070e573d6000803e3d6000fd5b506000803373ffffffffffffffffffffffffffffffffffffffff1673ffffffffffffffffffffffffffffffffffffffff16815260200190815260200160002060006101000a81548173ffffffffffffffffffffffffffffffffffffffff021916908373ffffffffffffffffffffffffffffffffffffffff160217905550565b6060600073ffffffffffffffffffffffffffffffffffffffff166000803373ffffffffffffffffffffffffffffffffffffffff1673ffffffffffffffffffffffffffffffffffffffff16815260200190815260200160002060009054906101000a900473ffffffffffffffffffffffffffffffffffffffff1673ffffffffffffffffffffffffffffffffffffffff160361085c576040517f08c379a000000000000000000000000000000000000000000000000000000000815260040161085390610ca2565b60405180910390fd5b61086533610466565b905090565b60008073ffffffffffffffffffffffffffffffffffffffff166000803373ffffffffffffffffffffffffffffffffffffffff1673ffffffffffffffffffffffffffffffffffffffff16815260200190815260200160002060009054906101000a900473ffffffffffffffffffffffffffffffffffffffff1673ffffffffffffffffffffffffffffffffffffffff1603610938576040517f08c379a000000000000000000000000000000000000000000000000000000000815260040161092f90610ca2565b60405180910390fd5b610941336102c4565b905090565b610a7e8062000e5a83390190565b6000604051905090565b600080fd5b600080fd5b600080fd5b600080fd5b6000601f19601f8301169050919050565b7f4e487b7100000000000000000000000000000000000000000000000000000000600052604160045260246000fd5b6109bb82610972565b810181811067ffffffffffffffff821117156109da576109d9610983565b5b80604052505050565b60006109ed610954565b90506109f982826109b2565b919050565b600067ffffffffffffffff821115610a1957610a18610983565b5b610a2282610972565b9050602081019050919050565b82818337600083830152505050565b6000610a51610a4c846109fe565b6109e3565b905082815260208101848484011115610a6d57610a6c61096d565b5b610a78848285610a2f565b509392505050565b600082601f830112610a9557610a94610968565b5b8135610aa5848260208601610a3e565b91505092915050565b600060208284031215610ac457610ac361095e565b5b600082013567ffffffffffffffff811115610ae257610ae1610963565b5b610aee84828501610a80565b91505092915050565b600073ffffffffffffffffffffffffffffffffffffffff82169050919050565b6000610b2282610af7565b9050919050565b610b3281610b17565b8114610b3d57600080fd5b50565b600081359050610b4f81610b29565b92915050565b600060208284031215610b6b57610b6a61095e565b5b6000610b7984828501610b40565b91505092915050565b610b8b81610b17565b82525050565b6000602082019050610ba66000830184610b82565b92915050565b600081519050919050565b600082825260208201905092915050565b60005b83811015610be6578082015181840152602081019050610bcb565b83811115610bf5576000848401525b50505050565b6000610c0682610bac565b610c108185610bb7565b9350610c20818560208601610bc8565b610c2981610972565b840191505092915050565b60006020820190508181036000830152610c4e8184610bfb565b905092915050565b7f4d657373616765206e6f74206372656174656420796574000000000000000000600082015250565b6000610c8c601783610bb7565b9150610c9782610c56565b602082019050919050565b60006020820190508181036000830152610cbb81610c7f565b9050919050565b6000604082019050610cd76000830185610b82565b8181036020830152610ce98184610bfb565b90509392505050565b600081519050610d0181610b29565b92915050565b600060208284031215610d1d57610d1c61095e565b5b6000610d2b84828501610cf2565b91505092915050565b6000610d47610d42846109fe565b6109e3565b905082815260208101848484011115610d6357610d6261096d565b5b610d6e848285610bc8565b509392505050565b600082601f830112610d8b57610d8a610968565b5b8151610d9b848260208601610d34565b91505092915050565b600060208284031215610dba57610db961095e565b5b600082015167ffffffffffffffff811115610dd857610dd7610963565b5b610de484828501610d76565b91505092915050565b7f4d65737361676520697320616c72656164792063726561746564000000000000600082015250565b6000610e23601a83610bb7565b9150610e2e82610ded565b602082019050919050565b60006020820190508181036000830152610e5281610e16565b905091905056fe608060405234801561001057600080fd5b50604051610a7e380380610a7e8339818101604052810190610032919061011c565b806000806101000a81548173ffffffffffffffffffffffffffffffffffffffff021916908373ffffffffffffffffffffffffffffffffffffffff16021790555033600160006101000a81548173ffffffffffffffffffffffffffffffffffffffff021916908373ffffffffffffffffffffffffffffffffffffffff16021790555050610149565b600080fd5b600073ffffffffffffffffffffffffffffffffffffffff82169050919050565b60006100e9826100be565b9050919050565b6100f9816100de565b811461010457600080fd5b50565b600081519050610116816100f0565b92915050565b600060208284031215610132576101316100b9565b5b600061014084828501610107565b91505092915050565b610926806101586000396000f3fe608060405234801561001057600080fd5b506004361061004c5760003560e01c80630adde0eb146100515780636a75320b1461006f578063ce6d41de1461008d578063e9aa460f146100ab575b600080fd5b6100596100c7565b604051610066919061034d565b60405180910390f35b610077610155565b60405161008491906103b0565b60405180910390f35b61009561017e565b6040516100a2919061034d565b60405180910390f35b6100c560048036038101906100c09190610540565b610210565b005b600280546100d4906105cb565b80601f0160208091040260200160405190810160405280929190818152602001828054610100906105cb565b801561014d5780601f106101225761010080835404028352916020019161014d565b820191906000526020600020905b81548152906001019060200180831161013057829003601f168201915b505050505081565b60008060009054906101000a900473ffffffffffffffffffffffffffffffffffffffff16905090565b60606002805461018d906105cb565b80601f01602080910402602001604051908101604052809291908181526020018280546101b9906105cb565b80156102065780601f106101db57610100808354040283529160200191610206565b820191906000526020600020905b8154815290600101906020018083116101e957829003601f168201915b5050505050905090565b600160009054906101000a900473ffffffffffffffffffffffffffffffffffffffff1673ffffffffffffffffffffffffffffffffffffffff163373ffffffffffffffffffffffffffffffffffffffff16146102a0576040517f08c379a000000000000000000000000000000000000000000000000000000000815260040161029790610648565b60405180910390fd5b80600290816102af919061081e565b505050565b600081519050919050565b600082825260208201905092915050565b60005b838110156102ee5780820151818401526020810190506102d3565b838111156102fd576000848401525b50505050565b6000601f19601f8301169050919050565b600061031f826102b4565b61032981856102bf565b93506103398185602086016102d0565b61034281610303565b840191505092915050565b600060208201905081810360008301526103678184610314565b905092915050565b600073ffffffffffffffffffffffffffffffffffffffff82169050919050565b600061039a8261036f565b9050919050565b6103aa8161038f565b82525050565b60006020820190506103c560008301846103a1565b92915050565b6000604051905090565b600080fd5b600080fd5b6103e88161038f565b81146103f357600080fd5b50565b600081359050610405816103df565b92915050565b600080fd5b600080fd5b7f4e487b7100000000000000000000000000000000000000000000000000000000600052604160045260246000fd5b61044d82610303565b810181811067ffffffffffffffff8211171561046c5761046b610415565b5b80604052505050565b600061047f6103cb565b905061048b8282610444565b919050565b600067ffffffffffffffff8211156104ab576104aa610415565b5b6104b482610303565b9050602081019050919050565b82818337600083830152505050565b60006104e36104de84610490565b610475565b9050828152602081018484840111156104ff576104fe610410565b5b61050a8482856104c1565b509392505050565b600082601f8301126105275761052661040b565b5b81356105378482602086016104d0565b91505092915050565b60008060408385031215610557576105566103d5565b5b6000610565858286016103f6565b925050602083013567ffffffffffffffff811115610586576105856103da565b5b61059285828601610512565b9150509250929050565b7f4e487b7100000000000000000000000000000000000000000000000000000000600052602260045260246000fd5b600060028204905060018216806105e357607f821691505b6020821081036105f6576105f561059c565b5b50919050565b7f596f75206e65656420746f207573652074686520666163746f72790000000000600082015250565b6000610632601b836102bf565b915061063d826105fc565b602082019050919050565b6000602082019050818103600083015261066181610625565b9050919050565b60008190508160005260206000209050919050565b60006020601f8301049050919050565b600082821b905092915050565b6000600883026106ca7fffffffffffffffffffffffffffffffffffffffffffffffffffffffffffffffff8261068d565b6106d4868361068d565b95508019841693508086168417925050509392505050565b6000819050919050565b6000819050919050565b600061071b610716610711846106ec565b6106f6565b6106ec565b9050919050565b6000819050919050565b61073583610700565b61074961074182610722565b84845461069a565b825550505050565b600090565b61075e610751565b61076981848461072c565b505050565b5b8181101561078d57610782600082610756565b60018101905061076f565b5050565b601f8211156107d2576107a381610668565b6107ac8461067d565b810160208510156107bb578190505b6107cf6107c78561067d565b83018261076e565b50505b505050565b600082821c905092915050565b60006107f5600019846008026107d7565b1980831691505092915050565b600061080e83836107e4565b9150826002028217905092915050565b610827826102b4565b67ffffffffffffffff8111156108405761083f610415565b5b61084a82546105cb565b610855828285610791565b600060209050601f8311600181146108885760008415610876578287015190505b6108808582610802565b8655506108e8565b601f19841661089686610668565b60005b828110156108be57848901518255600182019150602085019450602081019050610899565b868310156108db57848901516108d7601f8916826107e4565b8355505b6001600288020188555050505b50505050505056fea2646970667358221220e91eb212b7eb10c057c3771236a67abcdc8c650d8d4b00afef50484892f7877764736f6c634300080f0033a2646970667358221220691761d4f31b5a55ce88f2a0500be45116b0c558014f7422b1bde8c5c3beb9d864736f6c634300080f0033",
  "immutableReferences": {},
  "source": "pragma solidity ^0.8.15;\n\ncontract HelloMessage2 {\n\n   address private _owner;\n   address private _factory;\n   string public _message;\n\n   modifier onlyOwner(address caller) {\n      require(caller == _owner, \"You're not the owner of the contract\");\n      _;\n    }\n\n    modifier onlyFactory() {\n      require(msg.sender == _factory, \"You need to use the factory\");\n      _;\n    }\n\n   constructor(address owner) {\n      _owner = owner;\n      _factory = msg.sender;\n    }\n\n   function getMessage() public view returns (string memory) {\n      return _message;\n    }\n\n    function setMessage(address caller, string memory new_message) public onlyFactory {\n        _message = new_message;\n    }\n\n   function getMessageOwner() public view returns (address owner) {\n      return _owner;\n    }    \n\n}\n\ncontract SenderHello2 {\n\n    mapping(address => HelloMessage2) _messages;\n\n    function createMessage() public {\n        require ( _messages[msg.sender] == HelloMessage2(address(0)), \"Message is already created\" );\n        _messages[msg.sender] = new HelloMessage2(msg.sender);\n    }\n\n    function setMessage(string memory new_message) public {\n        require (_messages[msg.sender] != HelloMessage2(address(0)), \"Message not created yet\" );\n        HelloMessage2(_messages[msg.sender]).setMessage(msg.sender, new_message);\n    }\n\n    function getMessage(address account) public view returns (string memory) {\n        require (_messages[account] != HelloMessage2(address(0)), \"Message not created yet\" );\n        return (_messages[account].getMessage());\n    }\n\n    function getMyMessage() public view returns (string memory) {\n         require (_messages[msg.sender] != HelloMessage2(address(0)), \"Message not created yet\" );\n        return (getMessage(msg.sender));\n    }\n\n    function getMessageOwner(address account) public view returns (address owner) {\n        require (_messages[account] != HelloMessage2(address(0)), \"Message not created yet\" );\n        return (_messages[account].getMessageOwner());\n    }\n\n    function getMyMessageOwner() public view returns (address owner) {\n        require (_messages[msg.sender] != HelloMessage2(address(0)), \"Message not created yet\" );\n        return (getMessageOwner(msg.sender));\n    }    \n\n}",
  "sourcePath": "/Users/garyjob/Applications/truechain/truffle2/contracts/SenderHello2.sol",
  "compiler": {
    "name": "solc",
    "version": "0.8.15+commit.e14f2714.Emscripten.clang"
  },
  "schemaVersion": "3.4.8",
  "updatedAt": "2022-07-25T19:35:56.274Z",
  "networkType": "ethereum",
  "devdoc": {
    "kind": "dev",
    "methods": {},
    "version": 1
  },
  "userdoc": {
    "kind": "user",
    "methods": {},
    "version": 1
  }
}