{
  "contractName": "Hello",
  "abi": [
    {
      "inputs": [],
      "name": "message",
      "outputs": [
        {
          "internalType": "string",
          "name": "",
          "type": "string"
        }
      ],
      "stateMutability": "view",
      "type": "function"
    },
    {
      "inputs": [],
      "name": "ping",
      "outputs": [],
      "stateMutability": "nonpayable",
      "type": "function"
    }
  ],
  "bytecode": "0x608060405234801561001057600080fd5b50610577806100206000396000f3fe608060405234801561001057600080fd5b50600436106100365760003560e01c80635c36b1861461003b578063e21f37ce14610045575b600080fd5b610043610063565b005b61004d61008d565b60405161005a91906101b4565b60405180910390f35b6040518060800160405280605481526020016104ee605491396000908161008a919061041b565b50565b6000805461009a90610234565b80601f01602080910402602001604051908101604052809291908181526020018280546100c690610234565b80156101135780601f106100e857610100808354040283529160200191610113565b820191906000526020600020905b8154815290600101906020018083116100f657829003601f168201915b505050505081565b600081519050919050565b600082825260208201905092915050565b60005b8381101561015557808201518184015260208101905061013a565b83811115610164576000848401525b50505050565b6000601f19601f8301169050919050565b60006101868261011b565b6101908185610126565b93506101a0818560208601610137565b6101a98161016a565b840191505092915050565b600060208201905081810360008301526101ce818461017b565b905092915050565b7f4e487b7100000000000000000000000000000000000000000000000000000000600052604160045260246000fd5b7f4e487b7100000000000000000000000000000000000000000000000000000000600052602260045260246000fd5b6000600282049050600182168061024c57607f821691505b60208210810361025f5761025e610205565b5b50919050565b60008190508160005260206000209050919050565b60006020601f8301049050919050565b600082821b905092915050565b6000600883026102c77fffffffffffffffffffffffffffffffffffffffffffffffffffffffffffffffff8261028a565b6102d1868361028a565b95508019841693508086168417925050509392505050565b6000819050919050565b6000819050919050565b600061031861031361030e846102e9565b6102f3565b6102e9565b9050919050565b6000819050919050565b610332836102fd565b61034661033e8261031f565b848454610297565b825550505050565b600090565b61035b61034e565b610366818484610329565b505050565b5b8181101561038a5761037f600082610353565b60018101905061036c565b5050565b601f8211156103cf576103a081610265565b6103a98461027a565b810160208510156103b8578190505b6103cc6103c48561027a565b83018261036b565b50505b505050565b600082821c905092915050565b60006103f2600019846008026103d4565b1980831691505092915050565b600061040b83836103e1565b9150826002028217905092915050565b6104248261011b565b67ffffffffffffffff81111561043d5761043c6101d6565b5b6104478254610234565b61045282828561038e565b600060209050601f8311600181146104855760008415610473578287015190505b61047d85826103ff565b8655506104e5565b601f19841661049386610265565b60005b828110156104bb57848901518255600182019150602085019450602081019050610496565b868310156104d857848901516104d4601f8916826103e1565b8355505b6001600288020188555050505b50505050505056fe48656c6c6f2c20576f726c64203a2054686973206973206120536f6c696469747920536d61727420436f6e7472616374206f6e20746865205072697661746520457468657265756d20426c6f636b636861696e20a264697066735822122072758eb241e24ba3428e19ef13b8241816410a1595c3129f0ead9c4167252e8c64736f6c634300080f0033",
  "immutableReferences": {},
  "source": "pragma solidity ^0.8.15;\n\ncontract Hello {\n   string public message;\n\n   function ping() public {\n      message = \"Hello, World : This is a Solidity Smart Contract on the Private Ethereum Blockchain \";\n   }\n}",
  "sourcePath": "/Users/garyjob/Applications/truechain/truffle/contracts/Hello.sol",
  "compiler": {
    "name": "solc",
    "version": "0.8.15+commit.e14f2714.Emscripten.clang"
  },
  "schemaVersion": "3.4.8",
  "updatedAt": "2022-07-25T16:21:01.581Z",
  "devdoc": {
    "kind": "dev",
    "methods": {},
    "version": 1
  },
  "userdoc": {
    "kind": "user",
    "methods": {},
    "version": 1
  }
}