{
  "contractName": "Hello3",
  "abi": [
    {
      "inputs": [],
      "name": "objectStatus",
      "outputs": [
        {
          "internalType": "string",
          "name": "",
          "type": "string"
        }
      ],
      "stateMutability": "view",
      "type": "function"
    },
    {
      "inputs": [],
      "name": "state1",
      "outputs": [],
      "stateMutability": "nonpayable",
      "type": "function"
    },
    {
      "inputs": [],
      "name": "state2",
      "outputs": [],
      "stateMutability": "nonpayable",
      "type": "function"
    }
  ],
  "bytecode": "0x608060405234801561001057600080fd5b506105d3806100206000396000f3fe608060405234801561001057600080fd5b50600436106100415760003560e01c806326e2aff1146100465780636accab8c14610064578063efe51cca1461006e575b600080fd5b61004e610078565b60405161005b9190610210565b60405180910390f35b61006c610106565b005b610076610130565b005b6000805461008590610261565b80601f01602080910402602001604051908101604052809291908181526020018280546100b190610261565b80156100fe5780601f106100d3576101008083540402835291602001916100fe565b820191906000526020600020905b8154815290600101906020018083116100e157829003601f168201915b505050505081565b60405180608001604052806054815260200161054a605491396000908161012d9190610477565b50565b6040518060400160405280601c81526020017f4920646f6e2774206b6e6f772077686174204920616d20646f696e6700000000815250600090816101749190610477565b50565b600081519050919050565b600082825260208201905092915050565b60005b838110156101b1578082015181840152602081019050610196565b838111156101c0576000848401525b50505050565b6000601f19601f8301169050919050565b60006101e282610177565b6101ec8185610182565b93506101fc818560208601610193565b610205816101c6565b840191505092915050565b6000602082019050818103600083015261022a81846101d7565b905092915050565b7f4e487b7100000000000000000000000000000000000000000000000000000000600052602260045260246000fd5b6000600282049050600182168061027957607f821691505b60208210810361028c5761028b610232565b5b50919050565b7f4e487b7100000000000000000000000000000000000000000000000000000000600052604160045260246000fd5b60008190508160005260206000209050919050565b60006020601f8301049050919050565b600082821b905092915050565b6000600883026103237fffffffffffffffffffffffffffffffffffffffffffffffffffffffffffffffff826102e6565b61032d86836102e6565b95508019841693508086168417925050509392505050565b6000819050919050565b6000819050919050565b600061037461036f61036a84610345565b61034f565b610345565b9050919050565b6000819050919050565b61038e83610359565b6103a261039a8261037b565b8484546102f3565b825550505050565b600090565b6103b76103aa565b6103c2818484610385565b505050565b5b818110156103e6576103db6000826103af565b6001810190506103c8565b5050565b601f82111561042b576103fc816102c1565b610405846102d6565b81016020851015610414578190505b610428610420856102d6565b8301826103c7565b50505b505050565b600082821c905092915050565b600061044e60001984600802610430565b1980831691505092915050565b6000610467838361043d565b9150826002028217905092915050565b61048082610177565b67ffffffffffffffff81111561049957610498610292565b5b6104a38254610261565b6104ae8282856103ea565b600060209050601f8311600181146104e157600084156104cf578287015190505b6104d9858261045b565b865550610541565b601f1984166104ef866102c1565b60005b82811015610517578489015182556001820191506020850194506020810190506104f2565b868310156105345784890151610530601f89168261043d565b8355505b6001600288020188555050505b50505050505056fe48656c6c6f2c20576f726c64203a2054686973206973206120536f6c696469747920536d61727420436f6e7472616374206f6e20746865205072697661746520457468657265756d20426c6f636b636861696e20a26469706673582212201ec323402ab279d0063c79cddaef113c3406394026a8f0f4f87e9951d3a803d264736f6c634300080f0033",
  "immutableReferences": {},
  "source": "pragma solidity ^0.8.15;\n\ncontract Hello3 {\n   string public objectStatus;\n\n   function state1() public {\n      objectStatus = \"Hello, World : This is a Solidity Smart Contract on the Private Ethereum Blockchain \";\n   }\n\n   function state2() public {\n      objectStatus = \"I don't know what I am doing\";\n   }\n}",
  "sourcePath": "/Users/garyjob/Applications/truechain/truffle/contracts/Hello3.sol",
  "compiler": {
    "name": "solc",
    "version": "0.8.15+commit.e14f2714.Emscripten.clang"
  },
  "schemaVersion": "3.4.8",
  "updatedAt": "2022-07-25T16:24:25.779Z",
  "devdoc": {
    "kind": "dev",
    "methods": {},
    "version": 1
  },
  "userdoc": {
    "kind": "user",
    "methods": {},
    "version": 1
  }
}